:020000040800F2
:100000000000022045470008AD240008AF24000886
:10001000B1240008B3240008B52400080000000043
:10002000000000000000000000000000B7240008ED
:10003000B924000800000000BB240008BD2400080B
:100040009547000895470008954700089547000820
:100050009547000895470008954700089547000810
:100060009547000895470008954700089547000800
:1000700095470008954700089547000895470008F0
:1000800095470008954700089547000895470008E0
:1000900095470008954700089547000895470008D0
:1000A00095470008954700089547000895470008C0
:1000B00095470008954700089547000895470008B0
:1000C00095470008954700089547000895470008A0
:1000D0009547000895470008954700089547000890
:1000E0009547000895470008954700089547000880
:1000F0009547000895470008954700089547000870
:10010000954700089547000895470008954700085F
:10011000954700089547000895470008954700084F
:10012000954700089547000895470008954700083F
:1001300095470008000000000000000095470008F7
:10014000954700089547000895470008C524000812
:10015000954700089547000895470008954700080F
:1001600095470008954700089547000895470008FF
:1001700095470008954700080000000000000000B7
:080180009547000895470008AF
:100188000348044B834202D0034B03B1184770471E
:10019800F8000020F8000020000000000548064B89
:1001A8001B1AD90F01EBA301491002D0034B03B16D
:1001B80018477047F8000020F800002000000000F1
:1001C80010B5064C237843B9FFF7DAFF044B13B197
:1001D8000448AFF300800123237010BDF80000200D
:1001E800000000009847000808B5044B1BB10449FB
:1001F8000448AFF30080BDE80840CFE700000000E6
:10020800FC0000209847000870B50F4B0F4DAB421B
:10021800A3EB050607D0B610002455F8043B0134BB
:100228009847A642F9D804F0B3FA094D094B5E1B6A
:10023800AB424FEAA60606D0002455F8043B013429
:100248009847A642F9D870BD184800081848000811
:10025800184800081C480008830730B547D0541ECA
:10026800002A3ED0CAB2034601E0013C39D303F864
:10027800012B9D07F9D1032C2CD9CDB205EB05250F
:100288000F2C05EB054535D9A4F1100222F00F0C0F
:1002980003F1100EE6444FEA121C1A46C2E9005553
:1002A800C2E9025510327245F8D10CF1010214F07E
:1002B8000C0F03EB021204F00F0C13D0ACF1040383
:1002C80023F003030433134442F8045B9342FBD145
:1002D8000CF003042CB1C9B21C4403F8011BA3425F
:1002E800FBD130BD64461346002CF4D1F9E7034630
:1002F8001446C0E71A46A446E0E700BF53B94AB916
:10030800002908BF00281CBF4FF0FF314FF0FF3015
:1003180000F06AB9ADF1080C6DE904CE00F006F8FA
:10032800DDF804E0DDE9022304B070472DE9F04769
:10033800089D0E4604460F46002B4AD194468C452C
:10034800B2FA82F260D942B1C2F12003974020FA92
:1003580003F30CFA02FC1F4394404FEA1C4E1FFAA9
:100368008CF6B7FBFEF1230C0EFB117743EA07432B
:1003780001FB06F098420AD91CEB030301F1FF3791
:1003880080F01581984240F21281023963441B1AA9
:10039800A4B2B3FBFEF00EFB103344EA034400FBA7
:1003A80006F6A6420AD91CEB040400F1FF3380F0DC
:1003B8000081A64240F2FD806444023840EA0140D0
:1003C800A41B00211DB1D4400023C5E90043BDE8AA
:1003D800F0878B4205D90DB1C5E900010021084617
:1003E800F5E7B3FA83F1002946D1B34202D382423A
:1003F80000F2F580841A66EB030201201746002DEF
:10040800E5D0C5E90047E2E7002A40F09380A1EB78
:100418000C034FEA1C471FFA8CFE0121B3FBF7F6C9
:1004280007FB1630230C43EA00430EFB06F0984204
:1004380008D91CEB030306F1FF3802D2984200F2F8
:10044800D08046461B1AA4B2B3FBF7F007FB103363
:1004580044EA03440EFB00FEA64508D91CEB04043D
:1004680000F1FF3302D2A64500F2B6801846A4EB8D
:100478000E0440EA0640A5E7C1F120078B4022FAA6
:1004880007FC4CEA030C06FA01FE20FA07F426FAE8
:1004980007F344EA0E0400FA01F84FEA1C404FEA59
:1004A8001449B3FBF0FE1FFA8CF600FB1E3349EA31
:1004B80003430EFB06F9994502FA01F20BD91CEB2E
:1004C80003030EF1FF3A80F08580994540F282805F
:1004D800AEF1020E6344A3EB0909A4B2B9FBF0F331
:1004E80000FB139944EA094403FB06F6A64208D91F
:1004F8001CEB040403F1FF3068D2A64266D9023B24
:10050800644443EA0E40A41BA0FB02E6B4427346CF
:10051800B14652D34FD05DB1B8EB030264EB090486
:1005280004FA07F722FA01F31F43CC40C5E9007427
:1005380000214CE7C2F1200120FA01F30CFA02FC79
:1005480026FA01F1964033434FEA1C471FFA8CFE06
:10055800B1FBF7F007FB1016190C41EA064100FB46
:100568000EF68E4204FA02F408D91CEB010100F1E0
:10057800FF382DD28E422BD902386144891B9BB299
:10058800B1FBF7F607FB161143EA014306FB0EF130
:10059800994208D91CEB030306F1FF3814D299429B
:1005A80012D9023E63445B1A46EA004136E73946EF
:1005B800EDE6184602E7F045ADD2BEEB020366EB66
:1005C8000C060138B146A6E74646ECE7034698E72D
:1005D8004046D3E7D6467EE76444023847E70846F4
:1005E8000DE7023E63442DE7704700BF84B0002248
:1005F8000092154B196B41F080011963196B01F0DA
:100608008001009100990192196B41F0040119636E
:10061800196B01F00401019101990292196B41F0E3
:1006280001011963196B01F001010291029903920A
:100638001A6B42F002021A631B6B03F00203039366
:10064800039B04B0704700BF0038024008B50B4850
:100658000B4B03600B4B436000238360C3604FF474
:100668008042026143618361C361036200F08CFBD5
:1006780000B908BD00F040F8FBE700BF14010020F6
:1006880000540040A086010030B589B000230393D0
:1006980004930593069307930268144B9A4201D07A
:1006A80009B030BD00250195114C236B43F00203BE
:1006B8002363236B03F002030193019BC02303937D
:1006C80012230493032306930423079303A90948D9
:1006D80000F064FA0295236C43F400132364236C3E
:1006E80003F400130293029BDAE700BF00540040B2
:1006F800003802400004024072B6FEE700B595B02B
:100708003022002108A8FFF7A7FD002303930493D4
:100718000593069307930193204A116C41F0805189
:100728001164126C02F080520192019A02931C4BE0
:100738001A6842F480421A601B6803F480430293EB
:10074800029B012308934FF48033099302230E93ED
:100758004FF480020F9204221092A8221192129351
:100768000723139308A801F045FA98B90F230393B8
:1007780002230493002305934FF4A05306934FF4E8
:1007880080530793052103A801F09EFC20B915B0FA
:100798005DF804FBFFF7B0FFFFF7AEFF003802403B
:1007A8000070004008B500F03DF9FFF7A7FFFFF71C
:1007B8001DFFFFF74BFF00F00DF800F02BF800F0DD
:1007C80049F802F04DFC02F065FC02F07DFC02F0F5
:1007D80021FDFEE708B50D480D4B03604FF4827309
:1007E800436000238360C360036143614FF4007278
:1007F8008261C3610362436283620A23C36201F0B8
:1008080039FD00B908BDFFF777FFFBE718020020A4
:100818000030014008B50D480D4B03604FF482735A
:10082800436000238360C360036143614FF4007237
:100838008261C3610362436283620A23C36201F077
:1008480019FD00B908BDFFF757FFFBE7C0010020FD
:100858000038004008B50D480D4B03604FF4827313
:10086800436000238360C360036143614FF40072F7
:100878008261C3610362436283620A23C36201F037
:10088800F9FC00B908BDFFF737FFFBE76801002056
:10089800003C0040F0B58DB00023079308930993FE
:1008A8000A930B930368454A934207D0444A9342FC
:1008B80027D0444A93425CD00DB0F0BD002100918E
:1008C800414B5A6C42F480525A645A6C02F480527A
:1008D8000092009A01911A6B42F001021A631B6B95
:1008E80003F001030193019BE0230793022308937C
:1008F80003230A9305230B9307A9344800F04EF904
:10090800DAE700240294304B1A6C42F480421A64ED
:100918001A6C02F480420292029A03941A6B42F013
:1009280004021A631A6B02F004020392039A0494F5
:100938001A6B42F002021A631B6B03F00203049362
:10094800049B0C2307930227089703260A9605257C
:100958000B9507A91E4800F021F94FF4005307939F
:10096800089709940A960B9507A91A4800F016F9F2
:10097800A2E700210591144B1A6C42F400421A6454
:100988001A6C02F400420592059A06911A6B42F01D
:1009980004021A631B6B03F004030693069B4FF4CF
:1009A800E05307930223089303230A9306230B9328
:1009B80007A9074800F0F2F87EE700BF00300140C1
:1009C80000380040003C004000380240000002406F
:1009D800000802400004024010B504460E4B1A7885
:1009E8004FF47A73B3FBF2F30C4A1068B0FBF3F0E0
:1009F80000F0C0F868B90F2C01D901200AE00022E4
:100A080021464FF0FF3000F0A1F8054B1C60002094
:100A180000E0012010BD00BF0000002008000020F9
:100A28000400002008B50B4B1A6842F400721A60E3
:100A38001A6842F480621A601A6842F480721A6076
:100A4800032000F071F80F20FFF7C6FF00F07AFAD4
:100A5800002008BD003C0240034A1168034B1B7884
:100A68000B441360704700BF700200200000002094
:100A7800014B1868704700BF7002002038B5044663
:100A8800FFF7F6FF0546B4F1FF3F02D0044B1B7891
:100A98001C44FFF7EDFF401BA042FAD338BD00BF4E
:100AA80000000020002807DB00F01F024009012396
:100AB8009340024A42F82030704700BF00E100E04E
:100AC800002808DB0901C9B200F1604000F5614067
:100AD80080F80013704700F00F000901C9B2014BFC
:100AE8001954704714ED00E000B500F00700C0F19C
:100AF800070CBCF1040F28BF4FF0040C031D062B94
:100B08000FD9C31E4FF0FF3E0EFA0CF021EA000188
:100B180099400EFA03FE22EA0E0241EA02005DF84D
:100B280004FB0023EEE70000074AD36823F4E063E0
:100B38001B041B0C000200F4E060034343F0BF6396
:100B480043F40033D360704700ED00E010B504466D
:100B5800054BD868C0F30220FFF7C6FF01462046C0
:100B6800FFF7AEFF10BD00BF00ED00E008B5FFF7CE
:100B780099FF08BD0138B0F1807F0BD24FF0E02318
:100B88005861054AF02182F8231000209861072255
:100B98001A6170470120704700ED00E000230F2B19
:100BA80000F2E98070B582B065E085684FEA430ECF
:100BB800032404FA0EF425EA0405CC6804FA0EF4BA
:100BC8002C438460446824EA02044A68C2F3001291
:100BD8009A40224342605CE0DC08083450F8242044
:100BE80003F00705AD004FF00F0E0EFA05FE22EADE
:100BF8000E0E0A69AA4042EA0E0240F824205CE080
:100C0800072200E0002202FA0EF22A4302345A4D6B
:100C180045F82420594A94686FEA0C0224EA0C0526
:100C28004E6816F4801F01D04CEA0405534CA560A9
:100C3800E46802EA04054E6816F4001F01D04CEA85
:100C480004054E4CE560646802EA04054E6816F433
:100C5800003F01D04CEA0405484C656024682240F6
:100C68004D6815F4803F01D04CEA0402434C2260E1
:100C780001330F2B7DD801229A400C6804EA020C3C
:100C880032EA0404F4D14C6804F00304013C012C5A
:100C98008BD94A6802F00302032A09D0C4685D00B0
:100CA8000322AA4024EA02048A68AA402243C260B6
:100CB8004A6802F00302022A8ED004684FEA430E03
:100CC800032202FA0EF224EA02044A6802F003023E
:100CD80002FA0EF2224302604A6812F4403FC7D07B
:100CE80000220192264A546C44F480445464526CA5
:100CF80002F480420192019A9C08A51C1E4A52F8EF
:100D0800255003F0030E4FEA8E0E0F2202FA0EF260
:100D180025EA02051B4A90423FF474AF02F580624F
:100D280090421AD002F58062904218D002F5806293
:100D3800904216D002F58062904214D002F580628B
:100D4800904212D002F58062904210D002F5806283
:100D580090423FF455AF082255E7012253E702229B
:100D680051E703224FE704224DE705224BE706220D
:100D780049E702B070BD704700380140003C0140AF
:100D88000038024000000240002800F0CC8070B516
:100D9800044690F83D30002B77D0242384F83D306A
:100DA8002268136823F0010313602268136843F470
:100DB800004313602268136823F40043136001F0B2
:100DC80039FA62685A4B9A4264D85A4B98428CBF97
:100DD80000230123002B40F0A8805749A1FB0031D4
:100DE8008B0C25686A6822F03F0242EA91426A60E9
:100DF80021680A6A22F03F0266684D4DAE424FD81C
:100E0800013313430B622168CA6922F44F4222F06E
:100E1800FF026568464B9D424CD8431E6D00B3FBEC
:100E2800F5F3013340F6FC70034278D0C3F30B03AB
:100E38001A43CA6121680B6823F0C003E269206A7B
:100E4800024313430B6021688B6823F4034323F0A8
:100E5800FF032269E068024313438B602168CB6873
:100E680023F0FF036269A06902431343CB60226841
:100E7800136843F00103136000202064202384F8E2
:100E88003D30206384F83E0070BD80F83C30FFF7A9
:100E9800FBFB82E7294B98428CBF0023012399E78B
:100EA8004FF4967505FB03F3254DA5FB03539B09EA
:100EB8000133A6E7A668BEB9431E05EB450CB3FB94
:100EC800FCF30133C3F30B03B3FA83F35B0943BBAE
:100ED800C6B9431E05EB4505B3FBF5F30133C3F370
:100EE8000B0343F40043A3E7431E05EB850C0CEB0F
:100EF8008C0CB3FBFCF30133C3F30B03B3FA83F39A
:100F08005B09E4E7431E05EB850505EB8505B3FBA7
:100F1800F5F30133C3F30B0343F4404388E7042399
:100F280086E7012384E7012070470120ACE700BF72
:100F3800A08601007F841E0083DE1B43FF083D005E
:100F4800D34D621082B0002100910B4B5A6C42F4D1
:100F580080425A645A6C02F480420092009A0191CD
:100F68001A6C42F080521A641B6C03F08053019390
:100F7800019B02B0704700BF003802402DE9F043E2
:100F880083B0D0F8008001EBC10300EB83039A6AB9
:100F98005B6A9A4254D807460C469B1A01EBC10279
:100FA80000EB8202D2699A4200D31A4602F1030981
:100FB8004FEA990915E006F103094FEA9909BB7947
:100FC80004EBC40507EB8505296A0093B3B2E2B2C6
:100FD800404601F0B6FD2B6A33442B62AB6A3344BA
:100FE800AB6208EB441303F510639B699BB24B4556
:100FF80012D304EBC40307EB83039A6A5B6A9A4231
:101008000AD24BB19B1A04EBC40207EB8202D669E1
:101018009E42D0D31E46CEE704EBC40307EB8307FA
:101028007A6ABB6A9A420FD804F00F040122A240E0
:10103800D8F8343823EA0203C8F83438002000E02E
:10104800012003B0BDE8F0830020FAE730B583B093
:1010580000287AD00446056890F89534C3B1032374
:1010680084F89534B5F1A04F17D0206801F01CFB27
:10107800237C8DF80030231D0ECB206801F052FA36
:1010880070B1022384F895340125284603B030BD99
:1010980080F8943402F074FBE1E70023A371E4E7DD
:1010A8000021206801F063FF024608B9034617E0F3
:1010B800022384F895340125E7E703EBC30104EB29
:1010C8008101012048750B75CB8500200876C86121
:1010D800086203EBC30104EB810148620133DBB210
:1010E80020799842E9D816E002EBC20304EB8303A7
:1010F800002183F8551283F8542283F85812C3F854
:101108005C12C3F8601202EBC20304EB8303C3F85A
:1011180064120132D2B29042E6D8237C8DF80030B6
:10112800231D0ECB206801F015FB054620B10223D4
:1011380084F895340125A8E700236374012384F813
:101148009534206801F0D2FE9FE701259DE70368EA
:1011580090F89424012A1AD010B50446012280F888
:101168009424DA6812F0400F02D0427B012A09D099
:10117800206801F093FA206801F0AAFE002084F8A4
:10118800940410BD9A6B42F480329A63F0E702200F
:101198007047000070B504460D460068066C00EB09
:1011A800411303F530639A68A179012911D03849B0
:1011B8008E4256D03DB905EBC50304EB8303D3F843
:1011C8006432002B5ED0E9B2204602F023FB0020F7
:1011D80070BD12F0080F09D02E498E42F7D912F4CB
:1011E800004FF4D04FF400429A60F0E712F0200F5D
:1011F80002D020229A60EAE712F0280FE7D12549A9
:101208008E4206D912F4004F03D04FF400429A6080
:10121800DDE705EBC50204EB8202D2F874121B6904
:10122800C3F31203CB1AC2F868327DB905EBC502C5
:1012380004EB8202D2F864226AB105EBC50204EB22
:101248008202D2F860121944C2F86012E9B220464C
:1012580002F0E0FABBE704F29C42012101F0C6FE6D
:10126800F4E712F4004F03D04FF400429A60AEE75F
:1012780012F0200F01D020229A60E9B2204602F035
:10128800C9FAA4E704F29C42002101F0AFFE9AE7F4
:101298000A31544F0A30544F38B5044603681D6C60
:1012A80003EB4113D3F8081B0E4A954207D903F5FF
:1012B800306311F4004F02D04FF400429A60204688
:1012C80002F0A0FA074B9D4202D9A379012B01D065
:1012D800002038BD04F29C420121206801F086FEFE
:1012E800F6E700BF0A30544F90F89434012B0CD025
:1012F80010B50446012380F894344174006801F065
:10130800D7FD002084F8940410BD0220704738B53A
:1013180005468C4611F0800F2BD101F00F0E0EEB15
:10132800CE04A40004F514740444211D0EEBCE0E63
:1013380000EB8E0E00208EF855020CF00F0C81F891
:1013480000C0C2F30A028A600B714A780AB1A1F898
:101358001AC0022B1CD095F89434012B1BD0012302
:1013680085F89434286801F0D0FA002085F89404B0
:1013780038BD01F00F0000EBC0018900103129448D
:10138800043100EBC00005EB800001244475D4E76C
:1013980000234B71DFE70220EAE710B504460A464E
:1013A80011F0800F20D101F00F0000EBC0039B006B
:1013B80003F514732344191D00EBC00004EB8000EF
:1013C800002380F8553202F00F020A7094F8943422
:1013D800012B18D0012384F89434206801F0E2FA34
:1013E800002084F8940410BD01F00F0000EBC00346
:1013F8009B0010332344191D00EBC00004EB800050
:1014080001234375DFE70220EDE710B5144601F02C
:101418000F0C0CEBCC01890001F514710144043167
:101428000CEBCC0E00EB8E0ECEF86022CEF86432B8
:101438000023CEF868328EF855328EF854C282797D
:10144800012A04D0006801F093FB002010BDCEF8FB
:101458007042F7E701F00F0101EBC10100EB8100D9
:10146800D0F86802704710B5144601F00F0C0CEB69
:10147800CC0189001031014404310CEBCC0E00EB97
:101488008E0ECEF82020CEF824300023CEF8283057
:1014980001238EF815308EF814C082799A4204D050
:1014A800006801F065FB002010BDCEF83040F7E77A
:1014B80038B501F00F050279AA4238D304460B4625
:1014C80011F0800F1FD101EBC101890001F51471E2
:1014D8000144043103EBC30300EB8303002283F8C8
:1014E800552201238B700D7094F89434012B20D071
:1014F800012384F89434206801F07FFC85B1002032
:1015080084F8940438BD05EBC50189001031014405
:10151800043105EBC50300EB830301225A75E0E7AC
:1015280004F29C42A179206801F060FDE7E7012000
:10153800E8E70220E6E701F00F0302799A4230D388
:1015480010B5044611F0800F1ED103EBC3018900CA
:1015580001F514710144043103EBC30200EB82026C
:10156800002082F8550200228A700B7094F8943497
:10157800012B18D0012384F89434206801F06AFC08
:10158800002084F8940410BD03EBC30189001031D6
:101598000144043103EBC30200EB820201205075C1
:1015A800E1E7012070470220EDE708B511F0800F50
:1015B8000CD101F00F0101EBC101890001F5147193
:1015C80001440431006801F05DFA08BD01F00F0123
:1015D80001EBC1018900103101440431F2E72DE922
:1015E800F04F83B004460568284601F0BCFC10B1F2
:1015F80003B0BDE8F08F0646206801F085FC00289E
:10160800F6D005F50067BB68C3F30D23C4F8D434DE
:10161800206801F079FC10F0020F04D022685369A9
:1016280003F002035361206801F06EFC10F0100F04
:1016380015D02268936923F010039361D5F82080B0
:1016480008F00F0908F4F013B3F5802F4CD0B3F568
:10165800402F6FD02268936943F01003936120688C
:1016680001F052FC10F4002F76D1206801F04CFCF8
:1016780010F4802F40F0E080206801F045FC00283D
:10168800C0F26181206801F03FFC10F4006F09D0BE
:10169800BB6813F0010F40F06E812268536903F4B0
:1016A80000635361206801F02FFC10F4805F40F064
:1016B8006681206801F028FC10F4005F40F0B381D7
:1016C800206801F021FC10F0080F40F0C481206868
:1016D80001F01AFC10F0800F00F0D781AB6923F0FD
:1016E8008003AB610126C0E147F6F07318EA030FE7
:1016F800B0D04FEA181A4FEAC903019309EBC90B96
:1017080004EB8B0BC8F30A12DBF86012284601F0D1
:1017180051FBDBF86032CAF30A0A5344CBF8603253
:10172800DBF86832019A4A4404EB82025344C2F857
:1017380068328FE7082204F29C41284601F03AFB00
:1017480009EBC90304EB8303D3F86822C8F30A182A
:101758004244C3F868227DE7206801F0D9FB80463F
:10176800B14635E005EB49130122C3F8082B494679
:101778002046FFF70FFD3CE005EB49130822C3F8AC
:10178800082B49462046FFF787FD35E009EBC903DA
:1017980004EB830393F85732012B41D005EB49132F
:1017A8000222C3F8082B1AF0200F04D005EB4913C6
:1017B8002022C3F8082B1AF4005F05D005EB491363
:1017C8004FF40052C3F8082B09F101094FEA5808F1
:1017D800B8F1000F3FF449AF18F0010FF4D05FFAE9
:1017E80089FB5946206801F0A3FB824610F0010FDF
:1017F800B8D11AF0080FBFD11AF0100F04D005EBBA
:1018080049131022C3F8082B1AF0020FCBD06B69CA
:1018180013F0800FBAD07B6843F480637B60B5E730
:1018280009EBC90304EB8303002283F857225946C6
:10183800204602F03FF8B1E7206801F071FB8046CE
:10184800B14625E05946204601F0F0FF1AF0080F8E
:1018580004D005EB49130822C3F808291AF0100F21
:1018680004D005EB49131022C3F808291AF0400FD9
:1018780004D005EB49134022C3F808291AF0020FD7
:1018880040D11AF0800F59D109F101094FEA5808DF
:10189800B8F1000F3FF4F0AE18F0010FF4D05FFA82
:1018A80089FB5946206801F04CFB824610F0010F75
:1018B800CCD009F00F02012101FA02F27B6B23EA76
:1018C80002037B6305EB4913C3F80819A3798B421C
:1018D800B8D109EBC90304EB83031A6AD9690A442E
:1018E8001A62B9F1000FADD109EBC90304EB830308
:1018F8005B6A002BA6D104F29C420121206801F00A
:1019080075FB9FE74946284600F0D4FE09EBC9035A
:1019180004EB8303DB7D012B05D005EB4913022281
:10192800C3F80829ADE709EBC90304EB83030022D8
:10193800DA755946204601F0C3FFEEE749462046CE
:10194800FFF71CFBA0E77B6823F001037B6094F89A
:10195800CC34012B08D0204601F0A6FF2268536939
:1019680003F0004353618DE6002184F8CC1420462F
:1019780000F03EF9F2E7204601F07EFF8DE67B6835
:1019880023F001037B601021206800F093FE1AE029
:1019980005EB46134FF67F31C3F80819D3F8002931
:1019A80022F40012C3F80029C3F8081BD3F8002B4F
:1019B80022F40012C3F8002BD3F8002B42F0006287
:1019C800C3F8002B01362379B342E1D8FB6943F011
:1019D8000113FB61E37BDBB1D7F8843043F00B03E1
:1019E800C7F884307B6C43F00B037B64D5F8003870
:1019F80023F4FE63C5F8003804F29C42A1792068FC
:101A080001F0F4FA2268536903F48053536150E6F5
:101A18007B6943F4005343F02B037B613B6943F03C
:101A28000B033B61E2E7206801F0D2FA206800F07E
:101A38005BFFE071266800F0F7FB0146E27930466B
:101A480000F0BAFD204601F002FF2268536903F452
:101A58000053536134E6204601F0F3FE22685369CF
:101A680003F00803536132E601362379B3420CD9F7
:101A780006EBC60304EB830393F85732012BF3D12B
:101A8800F1B22046FFF791FDEEE7206801F03CFA3D
:101A980010F4801F25D1206801F036FA10F4001FD9
:101AA80058D0012326E001362379B3421BD905EB30
:101AB8004613D3F8002906EBC60304EB83031B7E09
:101AC800012BF0D1002AEEDA06EBC60304EB830300
:101AD8000122DA7566F07F01C9B22046FFF765FD7D
:101AE800E1E70126E0E72268536903F480135361B4
:101AF800D1E7013322799A4227D905EB4312D2F86C
:101B0800001B03EBC30204EB820292F85822012A5D
:101B1800EFD10029EDDAD4F8D42482EA114212F088
:101B2800010FE6D103EBC30204EB8202012182F824
:101B38005712AA6942F08002AA616A6912F0800FFE
:101B4800D7D17B6843F400737B602268536903F440
:101B580000135361206801F0D7F910F0804F10D1BD
:101B6800206801F0D1F910F0040F3FF441AD23686B
:101B78005D6815F0040F0DD1226853682B4353603C
:101B880036E5204601F0A2FE2268536903F080433F
:101B98005361E5E7204601F09FFEEDE710B40468C5
:101BA800606A31B940EA0240A06200205DF8044B47
:101BB80070478C46A36A00EB1340002308E003F14A
:101BC800400104EB8101496800EB11400133DBB2AD
:101BD8000CF1FF318B42F2D340EA02400CF13F0195
:101BE80004EB81046060E0E70368596200207047F5
:101BF80070470000002800F0E08170B582B004460C
:101C0800036813F0010F3BD09F4B9B6803F00C0354
:101C1800042B2CD09C4B9B6803F00C03082B21D081
:101C28006368B3F5803F4FD0B3F5A02F52D0964BE1
:101C38001A6822F480321A601A6822F480221A6024
:101C48006368002B50D0FEF713FF05468E4B1B68C8
:101C580013F4003F14D1FEF70BFF401B6428F5D99D
:101C68000320B1E1884B5B6813F4800FD8D0864B12
:101C78001B6813F4003F03D06368002B00F09F81BA
:101C8800236813F0020F54D07F4B9B6813F00C0F9E
:101C98003ED07D4B9B6803F00C03082B33D0E368E0
:101CA800002B68D0794B01221A60FEF7E1FE054649
:101CB800754B1B6813F0020F54D1FEF7D9FE401B79
:101CC8000228F5D903207FE16F4A136843F4803373
:101CD8001360B5E76C4B1A6842F480221A601A68E0
:101CE80042F480321A60ABE7FEF7C2FE0546664B47
:101CF8001B6813F4003FC3D0FEF7BAFE401B6428EC
:101D0800F5D9032060E1604B5B6813F4800FC6D1FE
:101D18005D4B1B6813F0020F03D0E368012B40F002
:101D28005081594A136823F0F803216943EAC10333
:101D38001360236813F0080F42D063696BB3534BE9
:101D48000122C3F8802EFEF793FE05464E4B5B6FCB
:101D580013F0020F34D1FEF78BFE401B0228F5D991
:101D6800032031E1484A136823F0F803216943EA64
:101D7800C1031360DDE7454B00221A60FEF778FEC9
:101D88000546414B1B6813F0020FD2D0FEF770FED8
:101D9800401B0228F5D9032016E13C4B0022C3F86A
:101DA800802EFEF765FE0546374B5B6F13F0020F7A
:101DB80006D0FEF75DFE401B0228F5D9032003E19B
:101DC800236813F0040F77D02F4B1B6C13F0805F40
:101DD80033D1002301932C4B1A6C42F080521A64C1
:101DE8001B6C03F080530193019B0125284B1B6852
:101DF80013F4807F23D0A368012B34D0052B38D06F
:101E0800214B1A6F22F001021A671A6F22F004029E
:101E18001A67A368002B3DD0FEF72AFE06461A4B28
:101E28001B6F13F0020F46D1FEF722FE801B41F212
:101E380088339842F3D90320C6E00025D6E7144A30
:101E4800136843F480731360FEF712FE0646104BC6
:101E58001B6813F4807FCED1FEF70AFE801B022890
:101E6800F5D90320B0E0084A136F43F00103136764
:101E7800CFE7054B1A6F42F004021A671A6F42F057
:101E880001021A67C5E700BF003802400000474258
:101E980000700040FEF7ECFD0646524B1B6F13F036
:101EA800020F08D0FEF7E4FD801B41F28833984208
:101EB800F3D9032088E0EDB9A369002B00F08380F3
:101EC800484A926802F00C02082A51D0022B17D017
:101ED800454B00221A66FEF7CBFD0446414B1B68B2
:101EE80013F0007F42D0FEF7C3FD001B0228F5D98E
:101EF800032069E03B4A136C23F080531364DBE74B
:101F0800394B00221A66FEF7B3FD0546354B1B68B0
:101F180013F0007F06D0FEF7ABFD401B0228F5D971
:101F2800032051E0E369226A1343626A43EA821399
:101F3800A26A5208013A43EA0243E26A43EA0263A8
:101F4800284A5360284B01221A66FEF791FD044681
:101F5800244B1B6813F0007F06D1FEF789FD001B98
:101F68000228F5D903202FE000202DE000202BE0E7
:101F7800012B2BD01B4B5B6803F48001E269914273
:101F880026D103F03F02216A8A4223D1616A47F6CB
:101F9800C0721A40B2EB811F1ED103F44031A26A0D
:101FA8005208013AB1EB024F18D103F07063E26AAC
:101FB800B3EB026F14D1002006E001207047012026
:101FC80002E0012000E0002002B070BD0120FBE724
:101FD8000120F9E70120F7E70120F5E70120F3E701
:101FE8000120F1E7003802400000474208B5334BB2
:101FF8009B6803F00C03042B5BD0082B5BD12F4BA1
:102008005A6802F03F025B6813F4800F2CD02B4B08
:102018005868C0F388104FEA401CBCEB000C6EEB0C
:102028000E0E4FEA8E1343EA9C634FEA8C11B1EB14
:102038000C0163EB0E03DB0043EA5173C90011EB9B
:10204800000C43F10003590200234FEA4C2041EAF7
:10205800DC51FEF753F9194B5B68C3F301430133B5
:102068005B00B0FBF3F008BD144B5868C0F3881050
:102078004FEA401CBCEB000C6EEB0E0E4FEA8E13C1
:1020880043EA9C634FEA8C11B1EB0C0163EB0E033E
:10209800DB0043EA5173C90011EB000C43F1000364
:1020A800990200234FEA8C2041EA9C51FEF726F959
:1020B800D1E70348D7E70348D5E700BF0038024017
:1020C80000127A000024F400002800F09B8070B50C
:1020D8000D4604464F4B1B6803F007038B4208D29A
:1020E800CBB24C4A1370136803F007038B4240F0DD
:1020F8008B80236813F0020F17D013F0040F04D05D
:10210800454A936843F4E0539360236813F0080F3B
:1021180004D0414A936843F4604393603E4A93680D
:1021280023F0F003A1680B439360236813F0010FB9
:1021380032D06368012B21D09A1E012A25D9364A4C
:10214800126812F0020F61D033498A6822F0030244
:1021580013438B60FEF78CFC06462F4B9B6803F0FD
:102168000C036268B3EB820F16D0FEF781FC801B6C
:1021780041F288339842F0D9032042E0264A126897
:1021880012F4003FE0D101203BE0234A126812F02C
:10219800007FD9D1012034E01E4B1B6803F00703F0
:1021A800AB4207D9EAB21B4B1A701B6803F007034E
:1021B800AB422DD1236813F0040F06D0164A93685A
:1021C80023F4E053E1680B439360236813F0080F8E
:1021D80007D0114A936823F46043216943EAC10395
:1021E8009360FFF703FF0C4B9B68C3F303130B4A81
:1021F800D35CD8400A4B18600A4B1868FEF7ECFB12
:10220800002070BD012070470120FAE70120F8E79F
:102218000120F6E7003C024000380240B8470008B9
:102228000800002004000020014B1868704700BF18
:102238000800002008B5FFF7F7FF044B9B68C3F3BD
:102248008223034AD35CD84008BD00BF003802404F
:10225800B047000808B5FFF7E7FF044B9B68C3F3D6
:102268004233034AD35CD84008BD00BF003802405F
:10227800B047000800285AD010B50446436A33B95D
:102288004368B3F5827F05D00023C36102E00023D1
:10229800036143610023A36294F85130002B40D0BE
:1022A800022384F851302268136823F04003136036
:1022B800636803F48273A26802F404421343E26879
:1022C80002F400621343226902F0020213436269B6
:1022D80002F001021343A26902F400721343E26997
:1022E80002F038021343226A02F080021343A26A02
:1022F80002F40052216813430B60638B03F004035C
:10230800626A02F01002216813434B602268D369A5
:1023180023F40063D36100206065012384F8513001
:1023280010BD84F850302046FEF7B4FAB8E7012013
:102338007047000010B504460268136923F440533F
:10234800C1680B431361836802691A4343691A43DE
:10235800C3691A430168CB6823F4164323F00C03BE
:102368001343CB600268536923F4407381690B43BC
:1023780053610368314A934206D002F58062934262
:1023880002D0FFF757FF01E0FFF764FFE369B3F5F9
:10239800004F29D00021031849411B1841F10001C1
:1023A800C90041EA5371DB00181863684FEA8302D9
:1023B8004FEA937341F10001FDF7A0FF204AA2FB09
:1023C80000314909642303FB11031B013233A2FBCB
:1023D80003235B0903F0F00202EB011203F00F0381
:1023E800216813448B6010BD0023021843EB0301DE
:1023F800121841F10001C90041EA5271D2001018C7
:1024080041F10001626892185B41FDF777FF0C4AC1
:10241800A2FB00314909642303FB1103DB003233BB
:10242800A2FB03235B095A0002F4F87202EB0112C3
:1024380003F00703216813448B60D4E700100140C0
:102448001F85EB5160B310B5044690F8413013B3C3
:10245800242384F841302268D36823F40053D360DE
:102468002046FFF767FF2268136923F4904313613E
:102478002268536923F02A0353612268D36843F41E
:102488000053D36000206064202384F8413084F82E
:102498004230606310BD80F8403000F02FFED7E76F
:1024A80001207047FEE7FEE7FEE7FEE7FEE770471C
:1024B8007047704708B5FEF7CFFA08BD08B502485F
:1024C800FFF78DF808BD00BF4818002082B0002330
:1024D8000193019B01330193019BB3F1706F1CD8E9
:1024E8000369002BF5DA0A23019302E0019B013B03
:1024F8000193019B002BF9D1036943F001030361A8
:10250800019B01330193019BB3F1706F08D80369F4
:1025180013F0010FF4D1002000E0032002B070474F
:102528000320FBE784B010B5044603A880E80E003A
:102538009DF81130012B21D1A36B23F48033A363C1
:10254800E36823F4840323F04003E360E36823F49F
:102558004013E3609DF81830012B0AD02046FFF79E
:10256800B5FF9DF80E30012B1CD0BDE8104004B01B
:102578007047E36843F48013E360EFE7E36843F0F0
:102588004003E3602046FFF7A1FF9DF8153023B90B
:10259800A36B43F48033A363E3E7A36B23F4803393
:1025A800A363DEE7A36843F00603A360A36843F0D0
:1025B8002003A360D9E70000022A0AD00922C368D1
:1025C80023F47053C360C36843EA8223C3600020C6
:1025D8007047234B0B44234A93422FD9224B0B4479
:1025E800224A93422CD9A1F57403A3F51053204A2B
:1025F800934227D9A1F18373A3F5E7431D4A934278
:1026080022D31D4B0B441D4A93421FD91C4B0B442C
:102618001C4A93421CD31C4B0B441C4A934219D3AB
:10262800A1F1B773A3F55853194A934214D3194B20
:102638000B44194A934211D20722C0E70F22BEE782
:102648000E22BCE70D22BAE70C22B8E70B22B6E748
:102658000A22B4E70922B2E70822B0E70622AEE769
:10266800405327FFFF340C00401E1BFF3F420F0062
:102678007F4F120020D6130060B6E5FE5FE3160018
:1026880000D3CEFE40771B00C05BB3FEC091210093
:1026980020753800E05459FEE09C4100836843F0FF
:1026A8000103836000207047836823F0010383607F
:1026B8000020704782B000230193019B01330193EE
:1026C800019BB3F1706F15D80369002BF5DA00236D
:1026D8000193890141F020010161019B01330193BC
:1026E800019BB3F1706F08D8036913F0200FF4D180
:1026F800002000E0032002B070470320FBE782B00F
:1027080000230193019B01330193019BB3F1706F87
:1027180013D80369002BF5DA002301931023036112
:10272800019B01330193019BB3F1706F08D80369D2
:1027380013F0100FF4D1002000E0032002B070471E
:102748000320FBE7D0F800381943C0F80018002030
:102758007047000084B0F8B5044607A880E80E006A
:10276800002306E003F1400204EB820200215160DD
:1027780001330E2BF6D99DF8266006BBD4F8043831
:1027880043F00203C4F80438A36B43F40013A363B3
:10279800A36B23F40023A363A36B23F48023A36315
:1027A8000023C4F8003E9DF82130012B15D19DF877
:1027B8001F306BB900212046FFF7C4FF11E0A36B5F
:1027C80023F40013A363A36B43F40023A363E7E795
:1027D80001212046FFF7B6FF03E003212046FFF75B
:1027E800B1FF10212046FFF765FF054600B101251E
:1027F8002046FFF784FF00B1012504F5006C002393
:10280800CCF81030CCF81430CCF81C300AE0CBB936
:102818004FF00060C2F8000900220A614FF67F32CB
:102828008A6001339DF81C10994210D904EB4312B9
:1028380002F51061D2F800090028E8DB0020C2F890
:102848000009E9E74FF09040C2F80009E4E70023E7
:102858000AE0BBB14FF09047C2F8007B002202614A
:102868004FF67F3282600133994210D904EB43124C
:1028780002F53060D2F8007B002FEADB0027C2F8AF
:10288800007BEBE74FF00067C2F8007BE6E7DCF877
:10289800103023F48073CCF810300023A3616FF05C
:1028A800804363619DF81E301BB9A36943F0100390
:1028B800A361A2690B4B1343A3619DF822301BB19E
:1028C800A36943F00803A361012E04D02846BDE89C
:1028D800F84004B07047A36943F0804343F0040311
:1028E800A361F3E700383C80D0F8083803F006030A
:1028F800022B04D0062B04D02BB9002070470220ED
:102908007047022070470F20704710B591F800C03B
:102918004B78012B23D000F5006ED0F81C380CF052
:102928000F040122A24043EA0243C0F81C3800EB1E
:102938004C10D0F8003B13F4004F0ED1D0F8003BF8
:102948008A68C2F30A02097942EA8142134343F0D2
:10295800805343F40043C0F8003B002010BDD0F87A
:102968001C280CF00F0E03FA0EF39BB21343C0F8A9
:102978001C3800EB4C10D0F8003913F4004FECD1A0
:10298800D0F800398A68C2F30A02097942EA81421A
:1029980042EA8C52134343F0805343F40043C0F897
:1029A8000039DAE730B40B784A78012A26D000EBF0
:1029B8004313D3F8002B002A52DBD0F83C480A789E
:1029C80002F00F024FF0010C0CFA02F224EA024264
:1029D800C0F83C28D0F81C28097801F00F010CFA3F
:1029E80001FC22EA0C42C0F81C28D3F8001B234A39
:1029F8000A40C3F8002B002030BC704700EB43139B
:102A0800D3F80029002A1EDBD0F83C580A7802F0D7
:102A18000F02012404FA02F292B225EA0202C0F877
:102A28003C28D0F81C28097801F00F018C40A4B28A
:102A380022EA0402C0F81C28D3F80019104A0A40F8
:102A4800C3F80029D7E7D3F8002942F00062C3F899
:102A58000029D3F8002942F08042C3F80029D3E7BF
:102A6800D3F8002B42F00062C3F8002BD3F8002BF8
:102A780042F08042C3F8002B9FE700BF0078F3EFD5
:102A8800007833EC10B483B00246002301934878F1
:102A980001280BD00B7802EB4313D3F8000B002866
:102AA8002DDB002003B05DF8044B70470B7802EB78
:102AB8004313D3F80049002C01DB0020F2E7D3F8D8
:102AC800004944F00064C3F800490B7802EB431353
:102AD800D3F8004944F08044C3F80049019B01330E
:102AE8000193019C42F210739C42DBD80B7802EBF5
:102AF8004313D3F80039002BF0DB0020D2E7D3F8DA
:102B0800000B40F00060C3F8000B0B7802EB431396
:102B1800D3F8000B40F08040C3F8000B019B013351
:102B28000193019842F21073984208D80B7802EB8F
:102B38004313D3F8003B002BF0DB0020B2E7012061
:102B4800B0E710B59DF8084084B903334FEA930EF7
:102B58004FF0000C08E000EB023303F5805351F806
:102B6800044B1C600CF1010CF445F4D3002010BD9B
:102B7800F0B583B00C784B78012B2DD000EB441CBA
:102B88000CF530631D696FF312051D611D696FF344
:102B9800DC451D61002C40F0CE800C690CB18C68BE
:102BA8000C618C680C621D69C4F312042C431C610F
:102BB8001C6944F400241C61012A00F0DF800B79B1
:102BC800012B00F0E180DCF8003B43F00443CCF833
:102BD800003B002003B0F0BD0B6973BB00EB44134E
:102BE800D3F810596FF3DC45C3F81059D3F81059CE
:102BF80045F40025C3F81059D3F810596FF312059E
:102C0800C3F81059012A54D000EB4414D4F8003901
:102C180043F00443C4F800390B79012B72D00B69D7
:102C2800002BD6D0D0F83438097801F00F010122F2
:102C38008A401343C0F83438CBE700EB441303F55C
:102C480010631D696FF312051D611D696FF3DC4583
:102C58001D6184B90E698D68AE4200D90D611D6988
:102C680045F400251D611D690E69C6F3120C45EA7D
:102C78000C051D61C6E70D698E683544013DB5FB3D
:102C8800F6F51E691FFA85FC494F07EAC545354325
:102C98001D610D79012DE6D11D6925F0C0451D6125
:102CA8001D694FEA4C7C0CF0C04C45EA0C051D61CF
:102CB800D9E7CB691BB100EB4412C2F814390B7980
:102CC800012B08D000EB4414D4F8003943F0044336
:102CD800C4F800397DE7D0F8083813F4807F08D1AC
:102CE80000EB4412D2F8003943F00053C2F800391F
:102CF800E8E700EB4412D2F8003943F08053C2F8F9
:102D08000039DFE7D0F8083813F4807F0CD1D4F805
:102D1800003943F00053C4F8003900920B8A0A784E
:102D2800C968FFF70EFF54E7D4F8003943F0805321
:102D3800C4F80039F1E70C6954B91C698D68C5F30A
:102D480012052C431C611C6944F400241C6133E700
:102D58008D682C44013CB4FBF5F4A4B204FB05F5E2
:102D68000D621D69124E06EAC4442C431C611C699D
:102D78000D6AC5F312052C431C611DE7CA68002AB9
:102D88003FF41DAF5A611AE7D0F8083813F4807F72
:102D980006D1DCF8003B43F00053CCF8003B12E7C7
:102DA800DCF8003B43F08053CCF8003B0BE700BF56
:102DB8000000F81F10B5844608464FEA920E02F04C
:102DC8000302002305E00CF58051096840F8041B54
:102DD80001337345F7D37AB10CF5805CDCF8004019
:102DE8000021CBB2DB0024FA03F300F8013B0131E8
:102DF800013A92B2002AF4D110BD0B784A78012A20
:102E080014D000EB4310D0F8002B002A06DB2BB1BE
:102E1800D0F8003B23F08043C0F8003BD0F8003BDB
:102E280043F40013C0F8003B0020704700EB431048
:102E3800D0F80029002A06DB2BB1D0F8003923F09E
:102E48008043C0F80039D0F8003943F40013C0F8C3
:102E58000039E9E70B784A78012A0ED000EB4310D5
:102E6800D0F8003B23F40013C0F8003B0B79023B79
:102E7800DBB2012B15D90020704700EB4310D0F8C6
:102E8800003923F40013C0F800390B79023BDBB298
:102E9800012BF0D8D0F8003943F08053C0F800393E
:102EA800E9E7D0F8003B43F08053C0F8003BE2E785
:102EB800D0F8003823F4FE63C0F80038D0F80038A2
:102EC800090101F4FE610B43C0F800380020704787
:102ED800D0F8003E23F00303C0F8003ED0F80438D1
:102EE80023F00203C0F8043800207047D0F8003EF1
:102EF80023F00303C0F8003ED0F8043843F002037F
:102F0800C0F8043800207047426980691040704753
:102F1800D0F8183800F50060C0691840000C7047F8
:102F2800D0F8183800F50060C069184080B27047C2
:102F380000EB4111D1F8082B00F500604069104002
:102F48007047D0F81028D0F8343801F00F0C23FA65
:102F58000CF3DB01DBB2134300EB411000F510600A
:102F6800806818407047406900F00100704738B524
:102F78000546C36823F0C043C360012913D019BBB9
:102F8800C36843F08043C36000240A20FDF776FD40
:102F98000A342846FFF7E7FF08B1C72CF5D9C82C33
:102FA80014D0002038BDC36843F00053C360002428
:102FB8000A20FDF763FD0A342846FFF7D4FF0128ED
:102FC800EDD0C72CF4D9EAE70120EBE70120E9E7C7
:102FD800D0F800396FF30A03C0F80039D0F8043884
:102FE80043F48073C0F804380020704710B4046CB0
:102FF800154B9C4203D9D0F8003B002B16DB00246C
:10300800C0F8104BD0F8104B44F40024C0F8104B13
:10301800D0F8104B44F01804C0F8104BD0F8104BFF
:1030280044F0C044C0F8104B012903D000205DF8DB
:10303800044B7047C0F8142BD0F8003B43F08023B2
:10304800C0F8003BF2E700BF0A30544F034AD2F8F9
:10305800883043F47003C2F88830704700ED00E010
:1030680008B50A480A4B03604FF4E1334360002374
:103078008360C36003610C2242618361C361FFF70F
:10308800E1F900B908BDFDF737FBFBE704030020B1
:103098000010014008B50A480A4B03604FF4E133B9
:1030A800436000238360C36003610C224261836133
:1030B800C361FFF7C7F900B908BDFDF71DFBFBE7C2
:1030C800BC0200200044004008B50A480A4B0360CF
:1030D8004FF4E133436000238360C36003610C2233
:1030E80042618361C361FFF7ADF900B908BDFDF71F
:1030F80003FBFBE7740200200048004000B58DB0D8
:1031080000230793089309930A930B9303683B4A98
:10311800934208D03A4A934229D03A4A934249D036
:103128000DB05DF804FB00210191374B5A6C42F059
:1031380010025A645A6C02F010020192019A02912C
:103148001A6B42F001021A631B6B03F0010302932E
:10315800029B4FF4C06307930223089303230A9347
:1031680007230B9307A92948FDF718FDD8E7002185
:103178000391254B1A6C42F400321A641A6C02F45B
:1031880000320392039A04911A6B42F001021A6307
:103198001B6B03F001030493049B0C230793022386
:1031A800089303230A9307230B9307A91748FDF7EE
:1031B800F5FCB5E700210591134B1A6C42F4802207
:1031C8001A641A6C02F480220592059A06911A6B09
:1031D80042F002021A631B6B03F002030693069B7C
:1031E8004FF4406307930223089303230A930723AA
:1031F8000B9307A90648FDF7D1FC91E700100140A1
:1032080000440040004800400038024000000240EE
:103218000004024008B500220F49104800F004FCE1
:1032280070B90F490D4800F016FC60B90D490B48FC
:1032380000F03CFA50B9094800F027FC48B908BD2D
:10324800FDF75AFAEDE7FDF757FAEFE7FDF754FAFD
:10325800F1E7FDF751FAF2E7DC0000204C0300200B
:10326800500000209400002010B5D0F8D43203F1AB
:10327800B00250F822408CB100EB820043687BB169
:1032880094F80002FF280DD09B6894F8012221468B
:103298009847FF2384F80032002010BD0320FCE784
:1032A8000020FAE70020F8E70A2303800048704767
:1032B80088000020F8B506460F4F8221384600F0F6
:1032C800A5FD05460121384600F0A0FD04468121F0
:1032D800384600F09BFD0DB11022AA711CB14022A6
:1032E80022710022627118B14022027100224271DB
:1032F800432333800048F8BD0C000020F8B506468B
:103308000F4F8221384600F081FD054601213846DD
:1033180000F07CFD04468121384600F077FD0DB1B0
:103328001022AA711CB1402222710022627118B1C8
:103338004022027100224271432333800048F8BDC5
:103348000C000020F8B506460F4F8221384600F0E1
:103358005DFD05460121384600F058FD04468121EF
:10336800384600F053FD0DB11022AA711CB100229D
:1033780022710222627118B1002202710222427186
:10338800432333800048F8BD0C00002038B5D0F83E
:10339800D432B03350F8235095B1044600F0ECFA1B
:1033A800C5F80C02D4F8D432B03304EB8304636854
:1033B800DB6805F50371D5F804029847002038BD8D
:1033C8000320FCE738B5D0F8C852D0F8D432B0336F
:1033D80050F8234084B301F00F0303EB830200EBA2
:1033E800820252694AB103EBC30C05EB8C05ED6907
:1033F800B2FBF5FC05FB1C2292B10023C4F8143281
:10340800D0F8D432B03300EB830043681B69ABB10A
:103418000A4604F50471D4F808029847002038BD1C
:1034280003EB830300EB830300245C6123462246FD
:1034380000F0EAFA2046F2E70320F0E70020EEE782
:10344800F0B583B0D0F8D43203F1B00250F822704E
:1034580000228DF80720ADF80420002F7BD0044609
:103468000D46097811F0600634D0202E6CD1EA8818
:103478002AB311F0800F07D16B7887F80032EA88F9
:103488003F2A13D8D2B212E0B03300EB83035B6853
:103498009B68394668789847EA88072A28BF072230
:1034A8003946204601F004F9002651E0402287F809
:1034B80001223946204601F011F9002648E0B033D0
:1034C80000EB83035B689B6800222946687898476D
:1034D80000263DE06F780B2F31D8DFE807F006397A
:1034E8003030303030303030162690F89C32DBB235
:1034F800032B04D0294600F0C6FC032628E002224C
:1035080001A901F0D5F83E4622E090F89C32DBB2E2
:10351800032B04D0294600F0B6FC032618E001224C
:103528000DF1070101F0C4F812E090F89C32DBB20B
:10353800032B0DD0294600F0A6FC032608E02946F7
:1035480000F0A1FC032603E0294600F09CFC0326BA
:10355800304603B0F0BD0326FAE738B504468121AA
:1035680000F032FA002584F837500121204600F097
:103578002BFA84F877518221204600F025FA84F846
:103588004B506564D4F8D43203F1B00254F82220C9
:103598009AB1B03304EB83035B685B689847D4F84F
:1035A800D432B03354F8230000F0F0F9D4F8D43210
:1035B800B03344F82350C4F8BC52002038BD70B56D
:1035C80004464FF4077000F0DDF9002849D005469D
:1035D8004FF407720021FCF73FFED4F8D432B03321
:1035E80044F82350C4F8BC52237C002B41D14FF43B
:1035F800007302228121204600F0DBF9012684F8BD
:1036080037604FF4007302223146204600F0D1F9AA
:1036180084F87761102363640823032282212046FB
:1036280000F0C7F9012384F84B300026C5F804627E
:10363800D4F8D432B03304EB83035B681B68984733
:10364800C5F81462C5F81862D5F8042262B3257C5F
:103658001DBB4FF400730121204600F0DDF9284618
:1036680070BDD4F8D432B033002244F823200225A8
:10367800F5E7402302228121204600F09AF901262D
:1036880084F83760402302223146204600F091F941
:1036980084F8776110236364BEE740230121204644
:1036A80000F0BAF90025DAE70225D8E739B1D0F8F1
:1036B800D432B03300EB8300416000207047032010
:1036C8007047D0F8D432B03350F823302BB1C3F858
:1036D8000812C3F810220020704703207047D0F862
:1036E800D432B03350F823301BB1C3F80412002091
:1036F80070470320704710B5D0F8D432B03350F873
:10370800232092B1047C44B94FF40073D2F8042208
:10371800012100F081F9204610BD4023D2F804228F
:10372800012100F079F90024F5E70324F3E70020EC
:1037380070470020704700207047000010B5014610
:10374800044C2046FFF7CBFF2046FFF7D4FF0020AC
:1037580010BD00BF4C03002010B5064C00220649DE
:103768002046FFF7AEFF05492046FFF7B8FF0020C7
:1037780010BD00BF4C03002028060020280E0020A2
:1037880030B589B0002303930493059306930793F8
:103798000368B3F1A04F01D009B030BD00250195F1
:1037A800164C236B43F001032363236B03F00103DF
:1037B8000193019B4FF4C053039302230493032303
:1037C80006930A23079303A90D48FDF7E7F9636BEE
:1037D80043F0800363630295636C43F4804363643E
:1037E800636C03F480430293029B2A4629464320D4
:1037F800FDF7ACF94320FDF7B9F9CDE700380240F1
:103808000000024008B500F29C41D0F8E00400F046
:1038180052F908BD08B501EBC10300EB8303D3F8E7
:103828006022D0F8E00400F019FA08BD08B501EBF1
:10383800C10300EB83031A6AD0F8E00400F073FABE
:1038480008BD08B5D0F8E00400F0B3F908BD10B51C
:103858000446C17911B1022909D10121D4F8E00443
:1038680000F088F9D4F8E00400F051F910BDFCF735
:1038780043FF0121F2E7000010B50446D0F8E00448
:1038880000F07BF92268D2F8003E43F00103C2F849
:10389800003EE37A23B1034A136943F00603136138
:1038A80010BD00BF00ED00E008B5D0F8E00400F05E
:1038B80073F908BD08B5D0F8E00400F0A2F908BD16
:1038C80008B5D0F8E00400F085F908BD08B5D0F8CF
:1038D800E00400F0ADF908BD08B5D0F8E00400F048
:1038E800A9F908BD02780AB10020704710B503464F
:1038F8001548C0F8E034C3F8C8024FF0A04303608D
:10390800042303710222C2710023837142728372FD
:10391800C37203738373C373FDF798FB80B90A4CB2
:1039280080212046FEF760F9402200212046FEF75C
:1039380035F9802201212046FEF730F9002010BD1C
:10394800FCF7DAFEEBE700BF48180020D0F8C832D1
:1039580011F0800F08D101F07F0101EBC10103EBE9
:10396800810393F85602704701F07F0101EBC10112
:1039780003EB8103987D704708B5D0F8C802FDF7BE
:1039880069FD08BD004870472816002070470328C5
:1039980005D8DFE800F00504020501207047032080
:1039A800704708B5D0F8C802FDF7D1FBFFF7EFFF65
:1039B80008BD08B594461A466346D0F8C802FDF714
:1039C800A6FCFFF7E4FF08BD08B5D0F8C802FDF76C
:1039D800E4FCFFF7DCFF08BD08B5D0F8C802FDF726
:1039E80067FDFFF7D4FF08BD08B5D0F8C802FDF79A
:1039F800A2FDFFF7CCFF08BD08B5D0F8C802FDF757
:103A080073FCFFF7C4FF08BD08B5D0F8C802FDF77E
:103A18002AFDFFF7BCFF08BD08B5D0F8C802FDF7BE
:103A2800F4FCFFF7B4FF08BD98B108B503460020C1
:103A3800C3F8B802C3F8C402C3F8D00209B1C3F886
:103A4800B412012183F89C121A701846FFF74AFF36
:103A580008BD0320704710B582B00023ADF80630CA
:103A680089B10446C0F8B812CB6A23B10DF106003B
:103A78009847C4F8D002D4F8D8320133C4F8D83201
:103A8800002002B010BD0320FBE708B5FFF789FF4F
:103A980008BD08B5D0F8B83213B11B68984708BDFF
:103AA8000020FCE708B5D0F8B8325B68984700B941
:103AB80008BD0320FCE738B5044600F2AA252846CD
:103AC80000F0CDF90123C4F89432B4F8B032C4F848
:103AD800983294F8AA1201F01F03012B07D0022B89
:103AE8000AD073B92946204600F08EFB38BD294616
:103AF800204600F0C4FBF9E72946204600F001FC07
:103B0800F4E701F080012046FFF766FFEEE7F8B51D
:103B18000446012380F89C320023C0F894324360A5
:103B2800C0F8A43280F8A032D0F8B832E3B15B68AC
:103B3800E3B1002198470746D0B940230022114637
:103B48002046FFF736FF012684F863614025A4F874
:103B580060512B46002280212046FFF72AFF84F877
:103B6800236025843846F8BD0027E6E70027E4E708
:103B78000327E2E701740020704790F89C32DBB21B
:103B8800042B04D090F89C32DBB280F89D320423D9
:103B980080F89C320020704790F89C32DBB2042BEE
:103BA80001D00020704790F89D32DBB280F89C323B
:103BB800F7E708B590F89C32DBB2032B01D0002060
:103BC80008BDD0F8B832002BF9D0DB69002BF6D04D
:103BD8009847F4E708B5D0F8D432AE3350F823202C
:103BE8005AB190F89C32DBB2032B01D0002008BDFB
:103BF800136A23B198470020F9E70320F7E700206C
:103C0800F5E708B5D0F8D432AE3350F823205AB1CE
:103C180090F89C32DBB2032B01D0002008BD536A18
:103C280023B198470020F9E70320F7E70020F5E7DC
:103C38000020704708B5012380F89C32D0F8B832CC
:103C480023B15B680179984710B908BD0020FCE7EB
:103C58000320FAE7002070470020704738B5044673
:103C68000D46002945D1D0F89432032B01D00846DF
:103C780038BDD0F85831B0F86021934209D890F88F
:103C8800AA3203F01F03012B12D0022B1FD00846C3
:103C980013E09B1AC0F85831D0F864111144C0F8E9
:103CA80064119A4238BF1A4600F029FD2846DFE71A
:103CB80090F8AE12FFF7CEFF20B994F89C32DBB231
:103CC800032B09D0204600F022FD2846D0E790F8C3
:103CD800AE12FFF7C1FFEFE700F1AE0354F823304F
:103CE8001A69002AEED0C4F8D4021B692046984706
:103CF800E8E701F07F01FFF7AFFF90B994F89C3235
:103D0800DBB2032BB4D100F1AE0354F823309A6927
:103D1800002AADD0C4F8D4029B69294620469847AA
:103D2800A6E70020A4E738B504460D4600294CD183
:103D3800D0F89432022B07D094F8A00218B10023CF
:103D480084F8A032284638BD8269038C9A420ED87E
:103D58009A421AD094F89C32DBB2032B29D08021E6
:103D68002046FFF739FE204600F0DCFCE4E7D21AD3
:103D78008261416A1944416200F0A8FC00231A4696
:103D880019462046FFF748FED6E742699342E1D834
:103D9800D0F898329A42DDD20022114600F096FC03
:103DA8000021C4F898120B460A462046FFF734FE55
:103DB800C2E7D4F8B832DA68002AD0D00022C4F8B2
:103DC800D422DB6820469847C9E741F08001FFF715
:103DD80043FF90B994F89C32DBB2032BB3D100F1C6
:103DE800AE0354F823305A69002AACD0C4F8D40280
:103DF8005B69294620469847A5E70020A3E70B887A
:103E0800027813440B80037818447047428803787B
:103E18009A4218D930B583B004460D46ADF806303D
:103E28006388BDF806209A420AD20DF10601FFF711
:103E3800E6FF4378052BF3D18378AB42F0D100E05D
:103E4800002003B030BD002070470346002002E088
:103E58000130C0B201331A78002AF9D170470B78C3
:103E680003704B7843708B78CA7843EA0223438007
:103E78000B794A7943EA022383808B79CA7943EA2A
:103E88000223C380704710B504468021FFF7A4FDC4
:103E980000212046FFF7A0FD10BD30B583B00446D1
:103EA8000D460023ADF806304A88130A013B062B5D
:103EB80000F2AB80DFE803F0041F33A9A98D9A0054
:103EC800D0F8B4321B680DF10601007C9847EA88E7
:103ED800002A00F0A380BDF80630002B00F099807E
:103EE8009A4228BF1A46ADF806200146204600F03F
:103EF800DFFB03B030BD037C43B9D0F8B8329B6A0E
:103F08000DF10600984702234370E0E7D0F8B83275
:103F1800DB6A0DF10600984702234370D7E7D2B257
:103F2800052A52D8DFE802F003101D2A3744D0F8DA
:103F3800B4325B6823B10DF10601007C9847C6E7EF
:103F48002946FFF7A0FFD4E7D0F8B4329B6823B125
:103F58000DF10601007C9847B9E72946FFF793FF62
:103F6800C7E7D0F8B432DB6823B10DF10601007C55
:103F78009847ACE72946FFF786FFBAE7D0F8B4328E
:103F88001B6923B10DF10601007C98479FE729467C
:103F9800FFF779FFADE7D0F8B4325B6923B10DF1D3
:103FA8000601007C984792E72946FFF76CFFA0E7D7
:103FB800D0F8B4329B6923B10DF10601007C984713
:103FC80085E72946FFF75FFF93E72946FFF75BFF81
:103FD8008FE7037C33B9D0F8B8325B6B0DF106007C
:103FE800984774E72946FFF74EFF82E7037C43B9F9
:103FF800D0F8B8321B6B0DF10600984707234370C1
:1040080065E72946FFF73FFF73E72946FFF73BFFC0
:104018006FE729462046FFF736FF6AE7204600F09B
:1040280076FB66E738B504468B88FBB9CB88EBB9D5
:104038004B887F2B1AD803F07F0590F89C32DBB2AF
:10404800032B0CD080F89E522946FFF7D5FC20465A
:1040580000F05DFB35B1022384F89C3209E0FFF7DC
:1040680012FF06E0012384F89C3202E02046FFF7A5
:104078000AFF38BD70B504460E468D782F4B1D706B
:10408800012D10D890F89C32DBB2022B0FD0032BF5
:1040980026D0FFF7F8FE294B19782046FFF702FDD6
:1040A8000325284670BDFFF7EEFE0325F9E7A5B105
:1040B80045602946FFF7EDFC054638B131462046F4
:1040C800FFF7E1FE022384F89C32EAE7204600F07D
:1040D8001EFB032384F89C32E3E700F018FBE0E7BB
:1040E800CDB141688D4225D0C9B2FFF7DBFC134B37
:1040F800197861602046FFF7CCFC0546B0B131461F
:104108002046FFF7C0FE21792046FFF7CBFC0223AB
:1041180084F89C32C5E7022380F89C324560294622
:10412800FFF7C0FC204600F0F2FABAE7204600F09C
:10413800EEFAB6E700F0EBFA0025B2E72C1D0020F6
:1041480008B5CB88012B0BD190F89C32DBB2022B3F
:1041580009D9032B11D10122011D00F0A9FA01E0B0
:10416800FFF791FE08BD5BB23BB10146002341F861
:10417800083F012200F09CFAF4E7FFF784FEF1E71C
:1041880008B590F89C32013B022B12D8CB88022B41
:104198000CD10123C360D0F8A4320BB10323C36050
:1041A800022200F10C0100F083FA08BDFFF76BFE54
:1041B800FBE7FFF768FEF8E708B54B88012B04D04A
:1041C800022B07D0FFF75FFE08BDC0F8A43200F04D
:1041D8009EFAF9E78B881B0A80F8A03200F097FA5C
:1041E800F2E708B590F89C32013B022B09D84B88BE
:1041F800012B00D008BD0023C0F8A43200F087FAD4
:10420800F8E7FFF740FEF5E738B50C7804F06004EE
:10421800202C06D0402C04D06CB1FFF734FE0024CB
:1042280007E0D0F8D432AE3350F823309B68984773
:104238000446204638BD4D78092D1DD8DFE805F025
:1042480012191C161C08051C0F0BFFF726FEF0E7B9
:10425800FFF7E8FEEDE7FFF70DFF0446E9E7FFF794
:104268006FFFE6E7FFF78CFF2C46E2E7FFF7A4FFB6
:10427800DFE7FFF7B6FFDCE7FFF705FED9E770B524
:1042880005460C460B7803F06003202B07D0402B23
:1042980005D023B1FFF7F7FD0026304670BD95F82D
:1042A8009C32013B022B26D82179012905D92146C8
:1042B8002846FFF7E8FD0026EFE72846FFF7CAFC87
:1042C80068B900F1AE0255F82220916889B1C5F8A5
:1042D800D4029368214628469847064600E00326FC
:1042E800E388002BD9D1002ED7D1284600F00FFA49
:1042F800D3E70326F4E721462846FFF7C4FD002646
:10430800CBE72DE9F04106460D468B88DFB20C78E5
:1043180004F06004202C08D0402C06D0DCB1FFF754
:10432800B2FD00242046BDE8F08139463046FFF74B
:1043380093FC0446002840F0F980C6F8D40200F146
:10434800AE0356F823309B68002BEBD02946304645
:1043580098470446E6E791F80180B8F1010F31D09B
:10436800B8F1030F05D0B8F1000F67D0FFF78BFD48
:10437800D8E790F89C32DBB2022B04D0032B12D082
:10438800FFF781FDCEE70FB1802F04D129463046D3
:10439800FFF779FDC6E73946FFF71EFB8021304657
:1043A800FFF71AFBBEE74B8823B91FB1802F01D056
:1043B800CB881BB1304600F0AAF9B3E73946FFF7BE
:1043C8000BFBF7E790F89C32DBB2022B04D0032BEF
:1043D80012D0FFF758FDA5E70FB1802F04D1294669
:1043E8003046FFF750FD9DE73946FFF7F5FA802183
:1043F8003046FFF7F1FA95E74B88002B92D117F07A
:104408007F0F17D1304600F082F939463046FFF762
:1044180023FC002886D1C6F8D40200F1AE0256F873
:1044280022209268002A00F083802946304690476F
:10443800044677E73946FFF7D7FAE3E790F89C2276
:10444800D2B2022A05D0032A28D0FFF71CFD444621
:1044580068E70FB1802F14D113F0800F15D107F042
:104468007F0707EB8707B90001F5A87131440431CC
:10447800002301F80E3F0222304600F019F94446A5
:1044880050E7FFF700FD44464CE707F07F0707EBCE
:104498008707B900103131440431E9E75BB2002BDA
:1044A80020DB07F00F0202EB820200EB820292F897
:1044B800634124B3002B25DB07F07F0303EB830361
:1044C8009C0004F5A874344404340FB1802F22D121
:1044D8000023A373022204F10E01304600F0E8F82D
:1044E80044461FE707F00F0202EB820200EB82024C
:1044F80092F82340002CDDD1FFF7C5FC12E7FFF747
:10450800C2FC0FE707F07F0303EB83039C00103422
:1045180034440434D9E739463046FFF717FA10B166
:104528000123A373D6E70023A373D3E70024F9E696
:104538000446F7E600B370B50D4616460446FFF785
:1045480084FC01304300B3F5007F06D89BB233806A
:104558002B7003236B7002230AE04FF40073F6E715
:10456800EA5401345A1CD2B20021A9540233DBB2F6
:104578002278002AF4D170BD7047000012230B8006
:1045880000487047C800002004230B80004870478B
:10459800C4000020002393421ED200B510E00CF1A5
:1045A800370C01F813C000014FEA430C0CF1010C61
:1045B8004FF0000E01F80CE00133DBB2934209D250
:1045C8004FEA107CB0F1204FE9D20CF1300C01F821
:1045D80013C0E8E75DF804FB7047000038B50B4BE3
:1045E800D3F8100AD3F8144AD3F8183AC01800D1EF
:1045F80038BD074D08222946FFF7CCFF042205F1F4
:1046080010012046FFF7C6FFF2E700BF0070FF1F4A
:10461800AA00002008B51A230B80FFF7DFFF014826
:1046280008BD00BFA800002008B50A4628B90549FA
:104638000548FFF77FFF034808BD02490248FFF716
:1046480079FFF8E7301D0020C847000810B50A4672
:10465800034C21460348FFF76DFF204610BD00BFFD
:10466800301D0020E047000808B50A4628B905496A
:104678000548FFF75FFF034808BD02490248FFF7F6
:1046880059FFF8E7301D0020F447000808B50A462E
:1046980028B905490548FFF74DFF034808BD0249F9
:1046A8000248FFF747FFF8E7301D002000480008E0
:1046B80008B513460222C0F894224361416283611F
:1046C8000A460021FFF7A0F9002008BD08B51346E7
:1046D8000A460021FFF798F9002008BD08B51346DF
:1046E8000322C0F89422C0F85431C0F86411C0F80D
:1046F80058310A460021FFF78FF9002008BD08B598
:1047080013460A460021FFF787F9002008BD08B5BF
:104718000422C0F8942200231A461946FFF774F9B8
:10472800002008BD08B50522C0F8942200231A46C7
:104738001946FFF771F9002008BD0000DFF834D0F2
:10474800FEF784FC0C480D490D4A002302E0D458BA
:10475800C4500433C4188C42F9D30A4A0A4C0023C3
:1047680001E013600432A242FBD3FBF74DFDFCF7D6
:1047780019F870470000022000000020F80000200F
:1047880020480008F8000020301F0020FEE7000045
:10479800F8B500BFF8BC08BC9E467047F8B500BF26
:0847A800F8BC08BC9E467047F6
:1047B00000000000010203040000000000000000EF
:1047C000010203040607080953544D333220566989
:1047D000727475616C20436F6D506F7274000000CD
:1047E00053544D6963726F656C656374726F6E6963
:1047F0006373000043444320436F6E6669670000A3
:1048000043444320496E746572666163650000002D
:0848100024BBFF7F0100000042
:04481800F1010008A2
:04481C00C9010008C6
:1048200001000000100000000024F4000902430011
:10483000020100C032090400000102020100052447
:1048400000100105240100010424020205240600D1
:10485000010705820308001009040100020A000094
:10486000000705010240000007058102400000002A
:10487000C73500086335000849340008000000000F
:1048800071320008CD3300089533000800000000A5
:1048900000000000000000004D3300080533000850
:1048A000BD320008B13200080A06000200000040D4
:1048B0000100000061370008373700083B37000867
:1048C000453700083F3700081A03000000000000C9
:1048D00000000000000000000000000000000000D8
:1048E000000000000403090412010002020200405B
:1048F00083044057000201020301000085450008BF
:104900009145000855460008314600081D4600083C
:084910007146000895460008FD
:040000050800474563
:00000001FF
